:040000000DEF00F010
:04000800A5EF12F05E
:06001800FF0046EF12F0AC
:102000000042657374206F6E652079657421004508
:102010007175696E6577204E455721004D6F766961
:092020006E67204C696E6500003A
:10202A0020EE2AF010EE0BF0080E6F006FFFE3FFB0
:10203A00E806FBE26CEC13F00F0E056E200E066E3E
:10204A0023EC12F0000E056E010E3BEC11F0010EAE
:10205A00056E200E066E23EC12F033C005F0020E58
:10206A003BEC11F0332A090E33643EEF10F040EFD7
:10207A0010F042EF10F0000E336E1C0E056E200EAB
:10208A00066E23EC12F0000E056E030E3BEC11F007
:10209A00242A070E2416410EDBEC12F00B0E242420
:1020AA00D96EDA6A000EDA22DF50DBEC12F0420E49
:1020BA00DBEC12F02450096E0A6A010E0926000EA2
:1020CA000A220B0E0924D96E000E0A20DA6EDF509E
:1020DA00DBEC12F0430EDBEC12F02450096E0A6AB4
:1020EA00020E0926000E0A220B0E0924D96E000ED2
:1020FA000A20DA6EDF50DBEC12F0120061EC13F00A
:10210A00D28E120E036E270E046E000E056E76EC4A
:10211A0013F0200E036E270E046E000E056E7DEC82
:10212A0013F08CEC13F0520E166E2B0E156E000E79
:10213A00E82EFED7152EFCD7162EFAD700D0BD866C
:10214A00090E166E1E0E156EE40EE82EFED7152E1B
:10215A00FCD7162EFAD700D0BD84090E166E1E0EB5
:10216A00156EE40EE82EFED7152EFCD7162EFAD7DA
:10217A0000D0E1EC10F0BE82CDEC11F0C3EC12F00D
:10218A00BE92292A320E2964CDEF10F0CFEF10F05B
:10219A00D2EF10F0282A000E296E1BEC13F000096A
:1021AA00D8B4DAEF10F0DCEF10F0C0EF10F0292A03
:1021BA00C0EF10F00DEF00F0020E056E380E046E3F
:1021CA00AD0EE82EFED7042EFCD7052EFAD700F066
:1021DA00380E3CEC13F0680E046EE40EE82EFED7BF
:1021EA00042EFCD700D0380E3CEC13F00F0E046E10
:1021FA008A0EE82EFED7042EFCD700D0380E3CEC0F
:10220A0013F00F0E046E8A0EE82EFED7042EFCD7AA
:10221A0000D0100E3CEC13F00F0E046E8A0EE82E5E
:10222A00FED7042EFCD700D00C0E3CEC13F00F0E98
:10223A00046E8A0EE82EFED7042EFCD700D0060EB6
:10224A003CEC13F00F0E046E8A0EE82EFED7042E15
:10225A00FCD700D0010E3CEC13F03F0E046E550E75
:10226A00E82EFED7042EFCD700F01200086E4EEFBF
:10227A0011F0000E086E6BEF11F0400E086E6BEF56
:10228A0011F0140E086E6BEF11F0540E086E6BEF1E
:10229A0011F00850066E076A0750000AD8B458EFC2
:1022AA0011F03EEF11F00650000AD8B43EEF11F0DB
:1022BA00010AD8B442EF11F0030AD8B446EF11F07C
:1022CA00010AD8B44AEF11F03EEF11F0130E05647B
:1022DA0071EF11F073EF11F075EF11F0130E056E37
:1022EA002CEC13F00009D8A47DEF11F07FEF11F068
:1022FA0075EF11F008500524800FF2EC12F012006D
:10230A00000EBE6E000EBD6E000EBA6E000EBB6EE3
:10231A00000EBC6E040EC66E000EC26EC368C468A0
:10232A00130EC56E130E3A01706F60695069000E84
:10233A00806F000E406F000E716F040E816F000EE9
:10234A00516F000E416F000E616F000E5A6F000E42
:10235A005B6F000E6A6F000E6B6F000E7A6F000ED5
:10236A007B6F000E826F000E426F000E526F000EDE
:10237A00626F000E726F4369536963697369070E6E
:10238A00836F44695469646974690F0E846F12001B
:10239A0055EC13F01B50035E1C50045A045009E11B
:1023AA00320E035CD8A0DCEF11F0DEEF11F0FDEF86
:1023BA0011F055EC13F003C01BF004C01CF0BEB0C2
:1023CA00E9EF11F0ECEF11F0010EEDEF11F0000E54
:1023DA00FF0A146EBE501418FE0B1418BE6ECEA05F
:1023EA00F9EF11F0FBEF11F0FDEF11F015EC10F021
:1023FA001200D890CEA4D88023360F0E2318D8A462
:10240A0009EF12F00BEF12F022EF12F034503510F0
:10241A003610D8B413EF12F015EF12F022EF12F0C3
:10242A0002D822EF12F00500FA6E3450FD6E3550D4
:10243A00FE6E3650FF6EFA501200120033EF12F0A1
:10244A00600017F0F6FF60001BF0F7FF000EF86E51
:10245A000800F550DBEC12F0054A062A600017F076
:10246A00F6FF60001BF0F7FF000EF86E0800F5504B
:10247A000009D8A443EF12F045EF12F025EF12F04D
:10248A001200080EF66E270EF76E000EF86E00EEBA
:10249A002AF010EE0AF009006F00D7FFEEFFE550B0
:1024AA00E150F9E100EE17F0130EEE6AE806FDE1DD
:1024BA00080ED56E000ED66E000ED76E000183EFA1
:1024CA0010F0640EB96E630EB76EC00EB66EB650DB
:1024DA006F00DCFE06F0076A06C007F0066A0610FF
:1024EA003A6E07503B6E3901A39F938F220E036EFB
:1024FA00270E046E000E056E76EC13F0900EB86E81
:10250A0012003901A39F3B50B76E6000EBF0B6FF93
:10251A00375038103910D8B495EF12F097EF12F0FF
:10252A00A4EF12F002D8A4EF12F00500FA6E3750A9
:10253A00FD6E3850FE6E3950FF6EFA5012001200CE
:10254A006F00E8FF01F06F00ECFF02F0390193AF72
:10255A00B1EF12F0B3EF12F0BCEF12F0A3AFB8EF85
:10256A0012F0BAEF12F0BCEF12F086EC12F0600033
:10257A000BF0FBFF600007F0FAFF110055EC13F0B7
:10258A001750035E1850045A03500410D8B4D0EF01
:10259A0012F0D2EF12F0DAEF12F055EC13F003C09A
:1025AA0017F004C018F0FEEC11F01200046E2CECC7
:1025BA0013F00009D8A4E4EF12F0E6EF12F0DCEF12
:1025CA0012F0600013F0BAFFBD8ABD9CBD8E350EB5
:1025DA00E82EFED700F0BD9E1200046E2CEC13F01C
:1025EA000009D8A4FBEF12F0FDEF12F0F3EF12F09E
:1025FA00600013F0BAFFBD9ABD9CBD8E350EE82E61
:10260A00FED700F0BD9E1200000E3901C06F000E09
:10261A00C16F000EC26F000EC36F000EC46F000EB2
:10262A00C56F000EC66F000EC76F120023500F0B46
:10263A00036E03500F0A036E0350D8B427EF13F04A
:10264A002AEF13F0010E2BEF13F0000E1200C268EE
:10265A00BD9ABD8CBD8E050EE82EFED700F0CA507D
:10266A00800B036EBD9E000EC26E03501200036EF5
:10267A0060000FF0BAFFBD9ABD9CBD8E350EE82EE4
:10268A00FED700F0BD9E1200600E3901D96F000E10
:10269A00DB6F000EDD6F080EDF6F000EDE6F1200BB
:1026AA003901939F1DC005F01EC006F0938F05C027
:1026BA0003F006C004F012008EEC13F009EC13F0DC
:1026CA0085EC11F049EC13F066EC12F01200000EE2
:1026DA00F2EC12F0010EF2EC12F0800EF2EC12F0B3
:1026EA00120003C037F004C038F005C039F01200F8
:1026FA0003C034F004C035F005C036F012003132A0
:10270A0033343536373839011D4A1E2A1200B88E3D
:0A271A001200D29A12001200120001
:020000040020DA
:10000000FF0FFF0FFF0FFF0FFF0FFF0FFF0FFF0F80
:020000040030CA
:0A0000008CFFF7FF9FFFFFFFFFFFDB
:00000001FF
