:040000000DEF00F010
:0400080044EF12F0BF
:06001800FF0062EF12F090
:102000000048656C6C6F20576F726C6400496E6499
:10201000656E74204C696E6500001DEC13F0D28E65
:102020007A0E156E260E166E000E176E28EC13F043
:102030008A0E156E260E166E000E176E36EC13F015
:102040000C0E156E240E166E000E176E36EC13F085
:1020500040EC13F0520E1D6E2B0E1C6E000EE82E7F
:10206000FED71C2EFCD71D2EFAD700D0BD86090E38
:102070001D6E1E0E1C6EE40EE82EFED71C2EFCD725
:102080001D2EFAD700D0BD84090E1D6E1E0E1C6ECB
:10209000E40EE82EFED71C2EFCD71D2EFAD700D05A
:1020A000C0EC10F0BE8273EC10F07FEC12F0BE9228
:1020B000122A320E12645FEF10F061EF10F064EF3D
:1020C00010F0112A000E126ED7EC12F00009D8B4ED
:1020D0006CEF10F06EEF10F052EF10F0122A52EF8A
:1020E00010F00DEF00F011EC13F00550155E0650E6
:1020F000165A165009E1320E155CD8A082EF10F086
:1021000084EF10F0BFEF10F011EC13F015C005F0E4
:1021100016C006F0BEB08FEF10F092EF10F0010E77
:1021200093EF10F0000EFF0A1B6EBE501B18FE0B43
:102130001B18BE6ECEA09FEF10F0A1EF10F0BFEF06
:1021400010F02FEC13F0010E176E200E186EC3EC7A
:1021500011F027C017F0020E0CEC11F0272A090E1F
:102160002764B5EF10F0B7EF10F0B9EF10F0000EE4
:10217000276E0D0E176E200E186EC3EC11F01200B4
:10218000020E176E380E166EAD0EE82EFED7162E06
:10219000FCD7172EFAD700F0380EF8EC12F0680EC4
:1021A000166EE40EE82EFED7162EFCD700D0380EA1
:1021B000F8EC12F0E40E00D000D0E82EFCD700D0EE
:1021C00000D0380EF8EC12F0E40E00D000D0E82E6B
:1021D000FCD700D000D0100EF8EC12F0C00E00D0EA
:1021E000E82EFDD70C0EF8EC12F0C00E00D0E82E51
:1021F000FDD7060EF8EC12F0C00E00D0E82EFDD789
:10220000010EF8EC12F03F0E166E550EE82EFED7BA
:10221000162EFCD700F012001A6E1FEF11F0000E00
:102220001A6E3CEF11F0400E1A6E3CEF11F0140ED6
:102230001A6E3CEF11F0540E1A6E3CEF11F01A506A
:10224000186E196A1950000AD8B429EF11F00FEF6F
:1022500011F01850000AD8B40FEF11F0010AD8B4E9
:1022600013EF11F0030AD8B417EF11F0010AD8B434
:102270001BEF11F00FEF11F0130E176442EF11F086
:1022800044EF11F046EF11F0130E176EE8EC12F068
:102290000009D8A44EEF11F050EF11F046EF11F005
:1022A0001A501724800FAEEC12F01200000EBE6E12
:1022B000000EBD6E000EBA6E000EBB6E000EBC6E40
:1022C000040EC66E000EC26EC368C468130EC56EDF
:1022D000130E3A01706F60695069000E806F000E36
:1022E000406F000E716F040E816F000E516F000E73
:1022F000416F000E616F000E5A6F000E5B6F000E93
:102300006A6F000E6B6F000E7A6F000E7B6F000E0F
:10231000826F000E426F000E526F000E626F000E51
:10232000726F4369536963697369070E836F446908
:102330005469646974690F0E846F1200D890CEA43A
:10234000D8800D360F0E0D18D8A4A9EF11F0ABEF01
:1023500011F0C2EF11F01E501F102010D8B4B3EFCF
:1023600011F0B5EF11F0C2EF11F002D8C2EF11F089
:102370000500FA6E1E50FD6E1F50FE6E2050FF6E5F
:10238000FA5012001200D3EF11F060005FF0F6FF78
:10239000600063F0F7FF000EF86E0800F55097EC50
:1023A00012F0174A182A60005FF0F6FF600063F031
:1023B000F7FF000EF86E0800F5500009D8A4E3EF0F
:1023C00011F0E5EF11F0C5EF11F01200640EB96ED7
:1023D000630EB76EC00EB66EB6506F00DCFE18F01E
:1023E000196A18C019F0186A1810246E1950256E51
:1023F0003901A39F938F8C0E156E260E166E000E5C
:10240000176E28EC13F0900EB86E12002FEC13F03C
:10241000010E176E200E186EC3EC11F026C017F0D7
:10242000020E0CEC11F0262A090E26641AEF12F0A7
:102430001CEF12F01EEF12F0000E266E0D0E176E3E
:10244000200E186EC3EC11F012003901A39F255025
:10245000B76E600093F0B6FF215022102310D8B45D
:1024600034EF12F036EF12F043EF12F002D843EFE0
:1024700012F00500FA6E2150FD6E2250FE6E2350C0
:10248000FF6EFA50120012006F00E8FF13F06F00A9
:10249000ECFF14F0390193AF50EF12F052EF12F04D
:1024A0005BEF12F0A3AF57EF12F059EF12F05BEFB2
:1024B00012F025EC12F0600053F0FBFF60004FF0CB
:1024C000FAFF1100880EF66E260EF76E000EF86EFB
:1024D00009006F00D4FF26F009006F00D4FF27F039
:1024E00000EE01F0120EEE6AE806FDE1080ED56E70
:1024F000000ED66E000ED76E00010DEF10F011EC3D
:1025000013F00150155E0250165A15501610D8B42B
:102510008CEF12F08EEF12F096EF12F011EC13F038
:1025200015C001F016C002F09EEC11F01200166EFC
:10253000E8EC12F00009D8A4A0EF12F0A2EF12F01C
:1025400098EF12F060005BF0BAFFBD8ABD9CBD8EB3
:10255000350EE82EFED700F0BD9E1200166EE8EC98
:1025600012F00009D8A4B7EF12F0B9EF12F0AFEFF4
:1025700012F060005BF0BAFFBD9ABD9CBD8E350EB7
:10258000E82EFED700F0BD9E1200000E3901C06F8C
:10259000000EC16F000EC26F000EC36F000EC46F3D
:1025A000000EC56F000EC66F000EC76F12000D50F3
:1025B0000F0B156E15500F0A156E1550D8B4E3EFBA
:1025C00012F0E6EF12F0010EE7EF12F0000E12002B
:1025D000C268BD9ABD8CBD8E050EE82EFED700F0F8
:1025E000CA50800B156EBD9E000EC26E15501200B3
:1025F000156E600057F0BAFFBD9ABD9CBD8E350EBA
:10260000E82EFED700F0BD9E1200600E3901D96F92
:10261000000EDB6F000EDD6F080EDF6F000EDE6F49
:1026200012003901939F07C017F008C018F0938F6C
:1026300017C015F018C016F0120042EC13F0C5ECEC
:1026400012F056EC11F005EC13F0E6EC11F012006C
:1026500015C021F016C022F017C023F01200000EA2
:10266000AEEC12F0010EAEEC12F0120015C01EF02E
:1026700016C01FF017C020F01200074A082A1200E7
:0E268000B88E1200D29A120001011200120050
:020000040020DA
:10000000FF0FFF0FFF0FFF0FFF0FFF0FFF0FFF0F80
:020000040030CA
:0A0000008CFFF7FF9FFFFFFFFFFFDB
:00000001FF
