:040000000DEF00F010
:04000800DBEF00F03A
:10001800FF000BEF01F0000EBE6E000EBD6E000E6D
:10002800BA6E000EBB6E000EBC6E040EC66EC268C1
:10003800C368C468C5683A01706960695069000E90
:10004800806F4069000E716F040E816F000E516F52
:10005800000E416F000E616F000E5A6F000E5B6F4D
:10006800000E6A6F000E6B6F000E7A6F000E7B6FCA
:10007800000E826F000E426F000E526F000E626F0C
:10008800000E726F4369536963697369070E836F62
:1000980044695469646974690F0E846F120026EC10
:1000A80001F00150105E0250115A115009E1320E50
:1000B800105CD8A062EF00F064EF00F07AEF00F077
:1000C80026EC01F010C001F011C002F0BEB06FEFD5
:1000D80000F072EF00F0010E73EF00F0000EFF0A5F
:1000E800146EBE501418FE0B1418BE6E120032ECBB
:1000F80001F0D28E880E106E020E116E000E126E76
:100108003DEC01F047EC01F0BE8253EC00F0BE92EA
:100118000D2A320E0D6493EF00F095EF00F088EF92
:1001280000F00C2A000E0D6E88EF00F00DEF00F0C5
:10013800640EB96E630EB76EC00EB66EB6506F0021
:10014800DCFE13F0146A13C014F0136A1310186E4F
:100158001450196E3901A39F938F960E106E020EDC
:10016800116E000E126E3DEC01F0900EB86E12008A
:100178003901A39F1950B76E600063F0B6FF1550A0
:1001880016101710D8B4CBEF00F0CDEF00F0DAEF6F
:1001980000F002D8DAEF00F00500FA6E1550FD6E97
:1001A8001650FE6E1750FF6EFA50120012006F00C4
:1001B800E8FF0EF06F00ECFF0FF0390193AFE7EFA7
:1001C80000F0E9EF00F0F2EF00F0A3AFEEEF00F07F
:1001D800F0EF00F0F2EF00F0BCEC00F060003FF050
:1001E800FBFF60003BF0FAFF1100000E3901C06F01
:1001F800000EC16F000EC26F000EC36F000EC46FF9
:10020800000EC56F000EC66F000EC76F120000EE1D
:1002180001F00D0EEE6AE806FDE1080ED56E000E3F
:10022800D66E000ED76E00017BEF00F0600E39012C
:10023800D96F000EDB6F000EDD6F080EDF6F000E4A
:10024800DE6F12003901939F03C012F004C013F04F
:10025800938F12C010F013C011F0120049EC01F096
:10026800F9EC00F00FEC00F01AEC01F09CEC00F057
:10027800120010C015F011C016F012C017F01200CD
:10028800034A042A1200B88E1200D29A12001200F1
:020000040020DA
:10000000FF0FFF0FFF0FFF0FFF0FFF0FFF0FFF0F80
:020000040030CA
:0A0000008CFEF7FF9FFFFFFFFFFFDC
:00000001FF
