:040000000DEF00F010
:04000800E3EF11F021
:06001800FF0001EF12F0F1
:102000000048656C6C6F20576F726C6400496E6499
:10201000656E74204C696E65000083EC12F005500B
:10202000155E0650165A165009E1320E155CD8A0FE
:102030001CEF10F01EEF10F059EF10F083EC12F0CF
:1020400015C005F016C006F0BEB029EF10F02CEF59
:1020500010F0010E2DEF10F0000EFF0A1B6EBE50A7
:102060001B18FE0B1B18BE6ECEA039EF10F03BEF15
:1020700010F059EF10F0A1EC12F0010E176E200EC7
:10208000186E81EC11F023C017F0020EA6EC10F0D0
:10209000232A090E23644FEF10F051EF10F053EF95
:1020A00010F0000E236E0D0E176E200E186E81ECD0
:1020B00011F01200020E176E380E166EAD0EE82EDD
:1020C000FED7162EFCD7172EFAD700F0380E6AEC82
:1020D00012F0680E166EE40EE82EFED7162EFCD710
:1020E00000D0380E6AEC12F0E40E00D000D0E82EDA
:1020F000FCD700D000D0380E6AEC12F0E40E00D00D
:1021000000D0E82EFCD700D000D0100E6AEC12F000
:10211000C00E00D0E82EFDD70C0E6AEC12F0C00EF7
:1021200000D0E82EFDD7060E6AEC12F0C00E00D0EB
:10213000E82EFDD7010E6AEC12F03F0E166E550E1A
:10214000E82EFED7162EFCD700F012001A6EB9EF5B
:1021500010F0000E1A6ED6EF10F0400E1A6ED6EF89
:1021600010F0140E1A6ED6EF10F0540E1A6ED6EF51
:1021700010F01A50186E196A1950000AD8B4C3EF3B
:1021800010F0A9EF10F01850000AD8B4A9EF10F021
:10219000010AD8B4ADEF10F0030AD8B4B1EF10F0D3
:1021A000010AD8B4B5EF10F0A9EF10F0130E1764C0
:1021B000DCEF10F0DEEF10F0E0EF10F0130E176E12
:1021C0005AEC12F00009D8A4E8EF10F0EAEF10F092
:1021D000E0EF10F01A501724800F31EC12F01200CB
:1021E0008FEC12F0D28E500E156E250E166E000E6C
:1021F000176E9AEC12F0ABEC12F0520E1D6E2B0E15
:102200001C6E000EE82EFED71C2EFCD71D2EFAD712
:1022100000D0BD86090E1D6E1E0E1C6EE40EE82E4B
:10222000FED71C2EFCD71D2EFAD700D0BD84090E78
:102230001D6E1E0E1C6EE40EE82EFED71C2EFCD763
:102240001D2EFAD700D05AEC10F0BE820DEC10F023
:10225000BE92122A320E126430EF11F032EF11F0FA
:1022600025EF11F0112A000E126E25EF11F00DEF7F
:1022700000F0000EBE6E000EBD6E000EBA6E000EB7
:10228000BB6E000EBC6E040EC66E000EC26EC3683E
:10229000C468130EC56E130E3A01706F6069506901
:1022A000000E806F000E406F000E716F040E816F84
:1022B000000E516F000E416F000E616F000E5A6FDD
:1022C000000E5B6F000E6A6F000E6B6F000E7A6F70
:1022D000000E7B6F000E826F000E426F000E526F79
:1022E000000E626F000E726F436953696369736910
:1022F000070E836F44695469646974690F0E846FB3
:10230000120091EF11F060005FF0F6FF600063F0E3
:10231000F7FF000EF86E0800F5501AEC12F0174A9D
:10232000182A60005FF0F6FF600063F0F7FF000E10
:10233000F86E0800F5500009D8A4A1EF11F0A3EF42
:1023400011F083EF11F01200640EB96E630EB76ED8
:10235000C00EB66EB6506F00DCFE18F0196A18C0D9
:1023600019F0186A1810216E1950226E3901A39FB6
:10237000938F5E0E156E250E166E000E176E9AEC7C
:1023800012F0900EB86E12003901A39F2250B76E62
:10239000600087F0B6FF1E501F102010D8B4D3EF96
:1023A00011F0D5EF11F0E2EF11F002D8E2EF11F0E9
:1023B0000500FA6E1E50FD6E1F50FE6E2050FF6E1F
:1023C000FA50120012006F00E8FF13F06F00ECFFEC
:1023D00014F0390193AFEFEF11F0F1EF11F0FAEFD4
:1023E00011F0A3AFF6EF11F0F8EF11F0FAEF11F0E2
:1023F000C4EC11F0600053F0FBFF60004FF0FAFFF7
:102400001100600EF66E250EF76E000EF86E0900D4
:102410006F00D4FF23F000EE01F0120EEE6AE80622
:10242000FDE1080ED56E000ED66E000ED76E0001CF
:10243000F0EF10F0166E5AEC12F00009D8A423EF5A
:1024400012F025EF12F01BEF12F060005BF0BAFF04
:10245000BD8ABD9CBD8E350EE82EFED700F0BD9E18
:102460001200166E5AEC12F00009D8A43AEF12F0DE
:102470003CEF12F032EF12F060005BF0BAFFBD9A51
:10248000BD9CBD8E350EE82EFED700F0BD9E12001D
:10249000000E3901C06F000EC16F000EC26F000E3A
:1024A000C36F000EC46F000EC56F000EC66F000E26
:1024B000C76F1200C268BD9ABD8CBD8E050EE82E96
:1024C000FED700F0CA50800B156EBD9E000EC26E86
:1024D00015501200156E600057F0BAFFBD9ABD9CF2
:1024E000BD8E350EE82EFED700F0BD9E1200600EA8
:1024F0003901D96F000EDB6F000EDD6F080EDF6F44
:10250000000EDE6F12003901939F07C017F008C05C
:1025100018F0938F17C015F018C016F01200ADEC2C
:1025200012F048EC12F039EC11F077EC12F0A4EC58
:1025300011F0120015C01EF016C01FF017C020F0D9
:102540001200000E31EC12F0010E31EC12F012000C
:10255000074A082A1200B88E1200D29A12001200FE
:012560000179
:020000040020DA
:10000000FF0FFF0FFF0FFF0FFF0FFF0FFF0FFF0F80
:020000040030CA
:0A0000008CFFF7FF9FFFFFFFFFFFDB
:00000001FF
