:040000000DEF00F010
:04000800E3EF11F021
:06001800FF0001EF12F0F1
:102000000048656C6C6F20576F726C6400496E6499
:10201000656E74204C696E65000083EC12F003500D
:10202000125E0450135A135009E1320E125CD8A00C
:102030001CEF10F01EEF10F059EF10F083EC12F0CF
:1020400012C003F013C004F0BEB029EF10F02CEF63
:1020500010F0010E2DEF10F0000EFF0A186EBE50AA
:102060001818FE0B1818BE6ECEA039EF10F03BEF1B
:1020700010F059EF10F0A1EC12F0010E146E200ECA
:10208000156E81EC11F020C014F0020EA6EC10F0D9
:10209000202A090E20644FEF10F051EF10F053EF9B
:1020A00010F0000E206E0D0E146E200E156E81ECD9
:1020B00011F01200020E146E380E136EAD0EE82EE3
:1020C000FED7132EFCD7142EFAD700F0380E6AEC88
:1020D00012F0680E136EE40EE82EFED7132EFCD716
:1020E00000D0380E6AEC12F0E40E00D000D0E82EDA
:1020F000FCD700D000D0380E6AEC12F0E40E00D00D
:1021000000D0E82EFCD700D000D0100E6AEC12F000
:10211000C00E00D0E82EFDD70C0E6AEC12F0C00EF7
:1021200000D0E82EFDD7060E6AEC12F0C00E00D0EB
:10213000E82EFDD7010E6AEC12F03F0E136E550E1D
:10214000E82EFED7132EFCD700F01200176EB9EF61
:1021500010F0000E176ED6EF10F0400E176ED6EF8F
:1021600010F0140E176ED6EF10F0540E176ED6EF57
:1021700010F01750156E166A1650000AD8B4C3EF47
:1021800010F0A9EF10F01550000AD8B4A9EF10F024
:10219000010AD8B4ADEF10F0030AD8B4B1EF10F0D3
:1021A000010AD8B4B5EF10F0A9EF10F0130E1464C3
:1021B000DCEF10F0DEEF10F0E0EF10F0130E146E15
:1021C0005AEC12F00009D8A4E8EF10F0EAEF10F092
:1021D000E0EF10F017501424800F31EC12F01200D1
:1021E0008FEC12F0D28E500E126E250E136E000E72
:1021F000146E9AEC12F0ABEC12F0520E1A6E2B0E1B
:10220000196E000EE82EFED7192EFCD71A2EFAD71B
:1022100000D0BD86090E1A6E1E0E196EE40EE82E51
:10222000FED7192EFCD71A2EFAD700D0BD84090E7E
:102230001A6E1E0E196EE40EE82EFED7192EFCD76C
:102240001A2EFAD700D05AEC10F0BE820DEC10F026
:10225000BE920F2A320E0F6430EF11F032EF11F000
:1022600025EF11F00E2A000E0F6E25EF11F00DEF85
:1022700000F0000EBE6E000EBD6E000EBA6E000EB7
:10228000BB6E000EBC6E040EC66E000EC26EC3683E
:10229000C468130EC56E130E3A01706F6069506901
:1022A000000E806F000E406F000E716F040E816F84
:1022B000000E516F000E416F000E616F000E5A6FDD
:1022C000000E5B6F000E6A6F000E6B6F000E7A6F70
:1022D000000E7B6F000E826F000E426F000E526F79
:1022E000000E626F000E726F436953696369736910
:1022F000070E836F44695469646974690F0E846FB3
:10230000120091EF11F0600053F0F6FF600057F0FB
:10231000F7FF000EF86E0800F5501AEC12F0144AA0
:10232000152A600053F0F6FF600057F0F7FF000E2B
:10233000F86E0800F5500009D8A4A1EF11F0A3EF42
:1023400011F083EF11F01200640EB96E630EB76ED8
:10235000C00EB66EB6506F00DCFE15F0166A15C0E2
:1023600016F0156A15101E6E16501F6E3901A39FC8
:10237000938F5E0E126E250E136E000E146E9AEC85
:1023800012F0900EB86E12003901A39F1F50B76E65
:1023900060007BF0B6FF1B501C101D10D8B4D3EFAB
:1023A00011F0D5EF11F0E2EF11F002D8E2EF11F0E9
:1023B0000500FA6E1B50FD6E1C50FE6E1D50FF6E28
:1023C000FA50120012006F00E8FF10F06F00ECFFEF
:1023D00011F0390193AFEFEF11F0F1EF11F0FAEFD7
:1023E00011F0A3AFF6EF11F0F8EF11F0FAEF11F0E2
:1023F000C4EC11F0600047F0FBFF600043F0FAFF0F
:102400001100600EF66E250EF76E000EF86E0900D4
:102410006F00D4FF20F000EE01F00F0EEE6AE80628
:10242000FDE1080ED56E000ED66E000ED76E0001CF
:10243000F0EF10F0136E5AEC12F00009D8A423EF5D
:1024400012F025EF12F01BEF12F060004FF0BAFF10
:10245000BD8ABD9CBD8E350EE82EFED700F0BD9E18
:102460001200136E5AEC12F00009D8A43AEF12F0E1
:102470003CEF12F032EF12F060004FF0BAFFBD9A5D
:10248000BD9CBD8E350EE82EFED700F0BD9E12001D
:10249000000E3901C06F000EC16F000EC26F000E3A
:1024A000C36F000EC46F000EC56F000EC66F000E26
:1024B000C76F1200C268BD9ABD8CBD8E050EE82E96
:1024C000FED700F0CA50800B126EBD9E000EC26E89
:1024D00012501200126E60004BF0BAFFBD9ABD9C04
:1024E000BD8E350EE82EFED700F0BD9E1200600EA8
:1024F0003901D96F000EDB6F000EDD6F080EDF6F44
:10250000000EDE6F12003901939F05C014F006C063
:1025100015F0938F14C012F015C013F01200ADEC3B
:1025200012F048EC12F039EC11F077EC12F0A4EC58
:1025300011F0120012C01BF013C01CF014C01DF0EB
:102540001200000E31EC12F0010E31EC12F012000C
:10255000054A062A1200B88E1200D29A1200120002
:012560000179
:020000040020DA
:10000000FF0FFF0FFF0FFF0FFF0FFF0FFF0FFF0F80
:020000040030CA
:0A0000008CFFF7FF9FFFFFFFFFFFDB
:00000001FF
