:040000000DEF00F010
:040008002DEF12F0D6
:06001800FF004BEF12F0A7
:102000000048656C6C6F20576F726C6400496E6499
:10201000656E74204C696E65000002EC13F0D28E80
:10202000440E156E260E166E000E176E0DEC13F094
:10203000520E156E260E166E000E176E1BEC13F068
:10204000DE0E156E230E166E000E176E1BEC13F0CF
:1020500025EC13F0520E1C6E2B0E1B6E000EE82E9C
:10206000FED71B2EFCD71C2EFAD700D0BD86090E3A
:102070001C6E1E0E1B6EE40EE82EFED71B2EFCD728
:102080001C2EFAD700D0BD84090E1C6E1E0E1B6ECE
:10209000E40EE82EFED71B2EFCD71C2EFAD700D05C
:1020A00073EC10F0BE825FEC11F064EC12F0BE92A3
:1020B000122A320E12645FEF10F061EF10F064EF3D
:1020C00010F0112A000E126EBCEC12F00009D8B408
:1020D0006CEF10F06EEF10F052EF10F0122A52EF8A
:1020E00010F00DEF00F0020E176E380E166EAD0EEA
:1020F000E82EFED7162EFCD7172EFAD700F0380E92
:10210000DDEC12F0680E166EE40EE82EFED7162EE9
:10211000FCD700D0380EDDEC12F00F0E166E8A0ED2
:10212000E82EFED7162EFCD700D0380EDDEC12F0CC
:102130000F0E166E8A0EE82EFED7162EFCD700D094
:10214000100EDDEC12F00F0E166E8A0EE82EFED782
:10215000162EFCD700D00C0EDDEC12F00F0E166E12
:102160008A0EE82EFED7162EFCD700D0060EDDEC28
:1021700012F00F0E166E8A0EE82EFED7162EFCD722
:1021800000D0010EDDEC12F03F0E166E550EE82E5B
:10219000FED7162EFCD700F012001A6EE0EF10F0FA
:1021A000000E1A6EFDEF10F0400E1A6EFDEF10F0EB
:1021B000140E1A6EFDEF10F0540E1A6EFDEF10F0B3
:1021C0001A50186E196A1950000AD8B4EAEF10F0C4
:1021D000D0EF10F01850000AD8B4D0EF10F0010A78
:1021E000D8B4D4EF10F0030AD8B4D8EF10F0010A35
:1021F000D8B4DCEF10F0D0EF10F0130E176403EF3B
:1022000011F005EF11F007EF11F0130E176ECDEC82
:1022100012F00009D8A40FEF11F011EF11F007EF41
:1022200011F01A501724800F93EC12F01200000ED8
:10223000BE6E000EBD6E000EBA6E000EBB6E000EBE
:10224000BC6E040EC66E000EC26EC368C468130E68
:10225000C56E130E3A01706F60695069000E806F91
:10226000000E406F000E716F040E816F000E516FF3
:10227000000E416F000E616F000E5A6F000E5B6F13
:10228000000E6A6F000E6B6F000E7A6F000E7B6F90
:10229000000E826F000E426F000E526F000E626FD2
:1022A000000E726F4369536963697369070E836F28
:1022B00044695469646974690F0E846F1200F6EC06
:1022C00012F00550155E0650165A165009E1320EEE
:1022D000155CD8A06EEF11F070EF11F086EF11F0E1
:1022E000F6EC12F015C005F016C006F0BEB07BEF9C
:1022F00011F07EEF11F0010E7FEF11F0000EFF0ADA
:10230000196EBE501918FE0B1918BE6E1200D89027
:10231000CEA4D8800D360F0E0D18D8A492EF11F070
:1023200094EF11F0ABEF11F01D501E101F10D8B438
:102330009CEF11F09EEF11F0ABEF11F002D8ABEF74
:1023400011F00500FA6E1D50FD6E1E50FE6E1F50FE
:10235000FF6EFA5012001200BCEF11F060005FF047
:10236000F6FF600063F0F7FF000EF86E0800F5500E
:102370007CEC12F0174A182A60005FF0F6FF60004C
:1023800063F0F7FF000EF86E0800F5500009D8A4BE
:10239000CCEF11F0CEEF11F0AEEF11F01200640EA1
:1023A000B96E630EB76EC00EB66EB6506F00DCFE2F
:1023B00018F0196A18C019F0186A1810236E19500D
:1023C000246E3901A39F938F540E156E260E166E40
:1023D000000E176E0DEC13F0900EB86E120014EC98
:1023E00013F0010E176E200E186EACEC11F025C024
:1023F00017F0020ECDEC10F0252A090E256403EF2C
:1024000012F005EF12F007EF12F0000E256E0D0E20
:10241000176E200E186EACEC11F012003901A39F5C
:102420002450B76E60008FF0B6FF205021102210AC
:10243000D8B41DEF12F01FEF12F02CEF12F002D8FB
:102440002CEF12F00500FA6E2050FD6E2150FE6E4A
:102450002250FF6EFA50120012006F00E8FF13F0D6
:102460006F00ECFF14F0390193AF39EF12F03BEF3E
:1024700012F044EF12F0A3AF40EF12F042EF12F06F
:1024800044EF12F00EEC12F0600053F0FBFF60001E
:102490004FF0FAFF1100560EF66E260EF76E000E84
:1024A000F86E09006F00D4FF25F000EE01F0120E67
:1024B000EE6AE806FDE1080ED56E000ED66E000E3F
:1024C000D76E00010DEF10F0F6EC12F00150155E22
:1024D0000250165A15501610D8B471EF12F073EF5F
:1024E00012F07BEF12F0F6EC12F015C001F016C0FE
:1024F00002F087EC11F01200166ECDEC12F000091C
:10250000D8A485EF12F087EF12F07DEF12F0600093
:102510005BF0BAFFBD8ABD9CBD8E350EE82EFED79E
:1025200000F0BD9E1200166ECDEC12F00009D8A48A
:102530009CEF12F09EEF12F094EF12F060005BF04F
:10254000BAFFBD9ABD9CBD8E350EE82EFED700F0B9
:10255000BD9E1200000E3901C06F000EC16F000E4B
:10256000C26F000EC36F000EC46F000EC56F000E69
:10257000C66F000EC76F12000D500F0B156E155071
:102580000F0A156E1550D8B4C8EF12F0CBEF12F049
:10259000010ECCEF12F0000E1200C268BD9ABD8C85
:1025A000BD8E050EE82EFED700F0CA50800B156ECA
:1025B000BD9E000EC26E15501200156E600057F0E1
:1025C000BAFFBD9ABD9CBD8E350EE82EFED700F039
:1025D000BD9E1200600E3901D96F000EDB6F000E38
:1025E000DD6F080EDF6F000EDE6F12003901939F62
:1025F00007C017F008C018F0938F17C015F018C067
:1026000016F0120027EC13F0AAEC12F017EC11F000
:10261000EAEC12F0CFEC11F0120015C020F016C059
:1026200021F017C022F01200000E93EC12F0010E00
:1026300093EC12F0120015C01DF016C01EF017C06A
:102640001FF01200074A082A1200B88E1200D29A10
:07265000120012001200014C
:020000040020DA
:10000000FF0FFF0FFF0FFF0FFF0FFF0FFF0FFF0F80
:020000040030CA
:0A0000008CFFF7FF9FFFFFFFFFFFDB
:00000001FF
