:040000000DEF00F010
:04000800B4EF11F050
:06001800FF0022EF12F0D0
:102000000048656C6C6F20576F726C6400496E6499
:10201000656E74204C696E650000020E146E380EF9
:10202000136EAD0EE82EFED7132EFCD7142EFAD762
:1020300000F0380E31EC12F0680E136EE40EE82E4C
:10204000FED7132EFCD700D0380E31EC12F0E40E80
:1020500000D000D0E82EFCD700D000D0380E31ECF4
:1020600012F0E40E00D000D0E82EFCD700D000D053
:10207000100E31EC12F0C00E00D0E82EFDD70C0E81
:1020800031EC12F0C00E00D0E82EFDD7060E31EC78
:1020900012F0C00E00D0E82EFDD7010E31EC12F088
:1020A0003F0E136E550EE82EFED7132EFCD700F010
:1020B0001200176E6CEF10F0000E176E89EF10F023
:1020C000400E176E89EF10F0140E176E89EF10F0A6
:1020D000540E176E89EF10F01750156E166A1650D1
:1020E000000AD8B476EF10F05CEF10F01550000A3B
:1020F000D8B45CEF10F0010AD8B460EF10F0030A16
:10210000D8B464EF10F0010AD8B468EF10F05CEFB7
:1021100010F0130E14648FEF10F091EF10F093EFA6
:1021200010F0130E146E12EC12F00009D8A49BEFFD
:1021300010F09DEF10F093EF10F017501424800F63
:10214000E9EC11F01200000EBE6E000EBD6E000E26
:10215000BA6E000EBB6E000EBC6E040EC66E000E94
:10216000C26EC368C4681F0EC56E1F0E3A01706F41
:1021700060695069000E806F000E406F000E716F35
:10218000040E816F000E516F000E416F000E616FE3
:10219000000E5A6F000E5B6F000E6A6F000E6B6FC1
:1021A000000E7A6F000E7B6F000E826F000E426F82
:1021B000000E526F000E626F000E726F436953691A
:1021C00063697369070E836F44695469646974694C
:1021D0000F0E846F12004AEC12F00350125E04508E
:1021E000135A135009E1320E125CD8A0FAEF10F026
:1021F000FCEF10F02EEF11F04AEC12F012C003F0D9
:1022000013C004F0BEB007EF11F00AEF11F0010E99
:102210000BEF11F0000EFF0A186EBE501818FE0BDF
:102220001818BE6ECEA017EF11F019EF11F02CEFB9
:1022300011F0010E146E200E156E52EC11F0040E0A
:10224000146E020E59EC10F00D0E146E200E156E69
:1022500052EC11F02EEF11F068EC12F0120056EC77
:1022600012F0D28EDE0E126E240E136E000E146E5D
:1022700061EC12F072EC12F00DEC10F0BE82EBEC9F
:1022800010F0BE920F2A320E0F6449EF11F04BEF9F
:1022900011F03EEF11F00E2A000E0F6E3EEF11F01E
:1022A0000DEF00F062EF11F0600053F0F6FF6000F8
:1022B00057F0F7FF000EF86E0800F550D2EC11F061
:1022C000144A152A600053F0F6FF600057F0F7FF3C
:1022D000000EF86E0800F5500009D8A472EF11F056
:1022E00074EF11F054EF11F01200640EB96E630E2A
:1022F000B76EC00EB66EB6506F00DCFE15F0166AF3
:1023000015C016F0156A15101C6E16501D6E390199
:10231000A39F938FEC0E126E240E136E000E146E9C
:1023200061EC12F0900EB86E12003901A39F1D509F
:10233000B76E600073F0B6FF19501A101B10D8B4B6
:10234000A4EF11F0A6EF11F0B3EF11F002D8B3EF44
:1023500011F00500FA6E1950FD6E1A50FE6E1B50FA
:10236000FF6EFA50120012006F00E8FF10F06F00CD
:10237000ECFF11F0390193AFC0EF11F0C2EF11F093
:10238000CBEF11F0A3AFC7EF11F0C9EF11F0CBEF16
:1023900011F095EC11F0600047F0FBFF600043F096
:1023A000FAFF1100136E12EC12F00009D8A4DBEF53
:1023B00011F0DDEF11F0D3EF11F060004FF0BAFF34
:1023C000BD8ABD9CBD8E350EE82EFED700F0BD9EA9
:1023D0001200136E12EC12F00009D8A4F2EF11F003
:1023E000F4EF11F0EAEF11F060004FF0BAFFBD9A80
:1023F000BD9CBD8E350EE82EFED700F0BD9E1200AE
:10240000000E3901C06F000EC16F000EC26F000ECA
:10241000C36F000EC46F000EC56F000EC66F000EB6
:10242000C76F1200C268BD9ABD8CBD8E050EE82E26
:10243000FED700F0CA50800B126EBD9E000EC26E19
:102440001250120000EE01F00F0EEE6AE806FDE1F8
:10245000080ED56E000ED66E000ED76E00012FEF5F
:1024600011F0126E60004BF0BAFFBD9ABD9CBD8E9C
:10247000350EE82EFED700F0BD9E1200600E390129
:10248000D96F000EDB6F000EDD6F080EDF6F000EE0
:10249000DE6F12003901939F05C014F006C015F0DD
:1024A000938F14C012F015C013F0120074EC12F0E8
:1024B00000EC12F0A3EC10F03EEC12F075EC11F011
:1024C000120012C019F013C01AF014C01BF0120051
:1024D000000EE9EC11F0010EE9EC11F01200054AD2
:0E24E000062A1200B88E1200D29A12001200C4
:020000040020DA
:10000000FF0FFF0FFF0FFF0FFF0FFF0FFF0FFF0F80
:020000040030CA
:0A0000008CFFF7FF9FFFFFFFFFFFDB
:00000001FF
